{
  "contractName": "TasksContract",
  "abi": [
    {
      "inputs": [],
      "stateMutability": "nonpayable",
      "type": "constructor"
    },
    {
      "inputs": [],
      "name": "taskCounter",
      "outputs": [
        {
          "internalType": "uint256",
          "name": "",
          "type": "uint256"
        }
      ],
      "stateMutability": "view",
      "type": "function"
    },
    {
      "inputs": [
        {
          "internalType": "uint256",
          "name": "",
          "type": "uint256"
        }
      ],
      "name": "tasks",
      "outputs": [
        {
          "internalType": "uint256",
          "name": "id",
          "type": "uint256"
        },
        {
          "internalType": "string",
          "name": "title",
          "type": "string"
        },
        {
          "internalType": "string",
          "name": "description",
          "type": "string"
        },
        {
          "internalType": "bool",
          "name": "done",
          "type": "bool"
        },
        {
          "internalType": "uint256",
          "name": "createdAt",
          "type": "uint256"
        }
      ],
      "stateMutability": "view",
      "type": "function"
    },
    {
      "inputs": [
        {
          "internalType": "string",
          "name": "_title",
          "type": "string"
        },
        {
          "internalType": "string",
          "name": "_description",
          "type": "string"
        }
      ],
      "name": "createTask",
      "outputs": [],
      "stateMutability": "nonpayable",
      "type": "function"
    },
    {
      "inputs": [
        {
          "internalType": "uint256",
          "name": "_id",
          "type": "uint256"
        }
      ],
      "name": "toggleDone",
      "outputs": [],
      "stateMutability": "nonpayable",
      "type": "function"
    }
  ],
  "bytecode": "0x60806040523480156200001157600080fd5b506200008e6040518060400160405280601a81526020017f6d69207072696d657220746172656120646520656a656d706c6f0000000000008152506040518060400160405280601681526020017f6465736372697063696f6e20646520656a656d706c6f000000000000000000008152506200009460201b60201c565b62000302565b600080815480929190620000a8906200024f565b91905055506040518060a0016040528060005481526020018381526020018281526020016000151581526020014281525060016000805481526020019081526020016000206000820151816000015560208201518160010190805190602001906200011592919062000166565b5060408201518160020190805190602001906200013492919062000166565b5060608201518160030160006101000a81548160ff021916908315150217905550608082015181600401559050505050565b8280546200017490620002cc565b90600052602060002090601f016020900481019282620001985760008555620001e4565b82601f10620001b357805160ff1916838001178555620001e4565b82800160010185558215620001e4579182015b82811115620001e3578251825591602001919060010190620001c6565b5b509050620001f39190620001f7565b5090565b5b8082111562000212576000816000905550600101620001f8565b5090565b7f4e487b7100000000000000000000000000000000000000000000000000000000600052601160045260246000fd5b6000819050919050565b60006200025c8262000245565b91507fffffffffffffffffffffffffffffffffffffffffffffffffffffffffffffffff82141562000292576200029162000216565b5b600182019050919050565b7f4e487b7100000000000000000000000000000000000000000000000000000000600052602260045260246000fd5b60006002820490506001821680620002e557607f821691505b60208210811415620002fc57620002fb6200029d565b5b50919050565b610a2880620003126000396000f3fe608060405234801561001057600080fd5b506004361061004c5760003560e01c8063292a458514610051578063586717301461006d5780638d9776721461008b578063d81ef739146100bf575b600080fd5b61006b60048036038101906100669190610710565b6100db565b005b6100756101a7565b60405161008291906107a1565b60405180910390f35b6100a560048036038101906100a091906107e8565b6101ad565b6040516100b69594939291906108b8565b60405180910390f35b6100d960048036038101906100d491906107e8565b610300565b005b6000808154809291906100ed90610948565b91905055506040518060a001604052806000548152602001838152602001828152602001600015158152602001428152506001600080548152602001908152602001600020600082015181600001556020820151816001019080519060200190610158929190610513565b506040820151816002019080519060200190610175929190610513565b5060608201518160030160006101000a81548160ff021916908315150217905550608082015181600401559050505050565b60005481565b60016020528060005260406000206000915090508060000154908060010180546101d6906109c0565b80601f0160208091040260200160405190810160405280929190818152602001828054610202906109c0565b801561024f5780601f106102245761010080835404028352916020019161024f565b820191906000526020600020905b81548152906001019060200180831161023257829003601f168201915b505050505090806002018054610264906109c0565b80601f0160208091040260200160405190810160405280929190818152602001828054610290906109c0565b80156102dd5780601f106102b2576101008083540402835291602001916102dd565b820191906000526020600020905b8154815290600101906020018083116102c057829003601f168201915b5050505050908060030160009054906101000a900460ff16908060040154905085565b6000600160008381526020019081526020016000206040518060a00160405290816000820154815260200160018201805461033a906109c0565b80601f0160208091040260200160405190810160405280929190818152602001828054610366906109c0565b80156103b35780601f10610388576101008083540402835291602001916103b3565b820191906000526020600020905b81548152906001019060200180831161039657829003601f168201915b505050505081526020016002820180546103cc906109c0565b80601f01602080910402602001604051908101604052809291908181526020018280546103f8906109c0565b80156104455780601f1061041a57610100808354040283529160200191610445565b820191906000526020600020905b81548152906001019060200180831161042857829003601f168201915b505050505081526020016003820160009054906101000a900460ff16151515158152602001600482015481525050905080606001511581606001901515908115158152505080600160008481526020019081526020016000206000820151816000015560208201518160010190805190602001906104c4929190610513565b5060408201518160020190805190602001906104e1929190610513565b5060608201518160030160006101000a81548160ff021916908315150217905550608082015181600401559050505050565b82805461051f906109c0565b90600052602060002090601f0160209004810192826105415760008555610588565b82601f1061055a57805160ff1916838001178555610588565b82800160010185558215610588579182015b8281111561058757825182559160200191906001019061056c565b5b5090506105959190610599565b5090565b5b808211156105b257600081600090555060010161059a565b5090565b6000604051905090565b600080fd5b600080fd5b600080fd5b600080fd5b6000601f19601f8301169050919050565b7f4e487b7100000000000000000000000000000000000000000000000000000000600052604160045260246000fd5b61061d826105d4565b810181811067ffffffffffffffff8211171561063c5761063b6105e5565b5b80604052505050565b600061064f6105b6565b905061065b8282610614565b919050565b600067ffffffffffffffff82111561067b5761067a6105e5565b5b610684826105d4565b9050602081019050919050565b82818337600083830152505050565b60006106b36106ae84610660565b610645565b9050828152602081018484840111156106cf576106ce6105cf565b5b6106da848285610691565b509392505050565b600082601f8301126106f7576106f66105ca565b5b81356107078482602086016106a0565b91505092915050565b60008060408385031215610727576107266105c0565b5b600083013567ffffffffffffffff811115610745576107446105c5565b5b610751858286016106e2565b925050602083013567ffffffffffffffff811115610772576107716105c5565b5b61077e858286016106e2565b9150509250929050565b6000819050919050565b61079b81610788565b82525050565b60006020820190506107b66000830184610792565b92915050565b6107c581610788565b81146107d057600080fd5b50565b6000813590506107e2816107bc565b92915050565b6000602082840312156107fe576107fd6105c0565b5b600061080c848285016107d3565b91505092915050565b600081519050919050565b600082825260208201905092915050565b60005b8381101561084f578082015181840152602081019050610834565b8381111561085e576000848401525b50505050565b600061086f82610815565b6108798185610820565b9350610889818560208601610831565b610892816105d4565b840191505092915050565b60008115159050919050565b6108b28161089d565b82525050565b600060a0820190506108cd6000830188610792565b81810360208301526108df8187610864565b905081810360408301526108f38186610864565b905061090260608301856108a9565b61090f6080830184610792565b9695505050505050565b7f4e487b7100000000000000000000000000000000000000000000000000000000600052601160045260246000fd5b600061095382610788565b91507fffffffffffffffffffffffffffffffffffffffffffffffffffffffffffffffff82141561098657610985610919565b5b600182019050919050565b7f4e487b7100000000000000000000000000000000000000000000000000000000600052602260045260246000fd5b600060028204905060018216806109d857607f821691505b602082108114156109ec576109eb610991565b5b5091905056fea264697066735822122089a313f6ff69866909c387502c4859404163e6d3d01f4457db8a9b67eb9b191564736f6c634300080a0033",
  "immutableReferences": {},
  "source": "// SPDX-License-Identifier: MIT\r\npragma solidity ^0.8.6;\r\n\r\ncontract TasksContract {\r\n\r\n  uint256  public taskCounter;\r\n\r\n  constructor () {\r\n    createTask(\"mi primer tarea de ejemplo\", \"descripcion de ejemplo\");\r\n  }\r\n  \r\n  struct Task {\r\n    uint256 id;\r\n    string title;\r\n    string description;\r\n    bool done;\r\n    uint256 createdAt;\r\n  }\r\n\r\n  mapping (uint256 => Task) public tasks; \r\n\r\n  function createTask (string memory _title, string memory _description ) public {\r\n    taskCounter++;\r\n    tasks[taskCounter] = Task( taskCounter, _title, _description, false, block.timestamp);\r\n  }\r\n\r\n  function toggleDone(uint256 _id) public {\r\n    Task memory _task = tasks[_id];\r\n    _task.done = !_task.done;\r\n    tasks[_id] = _task;\r\n  }\r\n\r\n}",
  "sourcePath": "C:\\Users\\USURIO\\Csar\\myfirstcontract\\contracts\\TasksContract.sol",
  "compiler": {
    "name": "solc",
    "version": "0.8.10+commit.fc410830.Emscripten.clang"
  },
  "schemaVersion": "3.4.3",
  "updatedAt": "2021-11-17T17:09:09.448Z",
  "devdoc": {
    "kind": "dev",
    "methods": {},
    "version": 1
  },
  "userdoc": {
    "kind": "user",
    "methods": {},
    "version": 1
  }
}